{
  "contractName": "ehr",
  "abi": [
    {
      "inputs": [
        {
          "internalType": "address",
          "name": "_publicAddress",
          "type": "address"
        },
        {
          "internalType": "string",
          "name": "_name",
          "type": "string"
        },
        {
          "internalType": "uint64",
          "name": "_phone",
          "type": "uint64"
        },
        {
          "internalType": "string",
          "name": "_mail",
          "type": "string"
        },
        {
          "internalType": "string",
          "name": "_residentAddress",
          "type": "string"
        }
      ],
      "name": "registerPatient",
      "outputs": [],
      "stateMutability": "nonpayable",
      "type": "function"
    },
    {
      "inputs": [
        {
          "internalType": "address",
          "name": "_publicAddress",
          "type": "address"
        },
        {
          "internalType": "string",
          "name": "_name",
          "type": "string"
        },
        {
          "internalType": "uint64",
          "name": "_phone",
          "type": "uint64"
        },
        {
          "internalType": "string",
          "name": "_mail",
          "type": "string"
        },
        {
          "internalType": "string",
          "name": "_hospitalAddress",
          "type": "string"
        }
      ],
      "name": "registerhospital",
      "outputs": [],
      "stateMutability": "nonpayable",
      "type": "function"
    },
    {
      "inputs": [
        {
          "internalType": "address",
          "name": "_publicAddress",
          "type": "address"
        },
        {
          "internalType": "string",
          "name": "_name",
          "type": "string"
        },
        {
          "internalType": "uint64",
          "name": "_phone",
          "type": "uint64"
        },
        {
          "internalType": "string",
          "name": "_mail",
          "type": "string"
        },
        {
          "internalType": "string",
          "name": "_residentAddress",
          "type": "string"
        }
      ],
      "name": "updatePatient",
      "outputs": [],
      "stateMutability": "nonpayable",
      "type": "function"
    },
    {
      "inputs": [
        {
          "internalType": "address",
          "name": "_publicAddress",
          "type": "address"
        },
        {
          "internalType": "string[]",
          "name": "_disease",
          "type": "string[]"
        },
        {
          "internalType": "string[]",
          "name": "_treatment",
          "type": "string[]"
        },
        {
          "internalType": "string[]",
          "name": "_treatmentYear",
          "type": "string[]"
        }
      ],
      "name": "addRecord",
      "outputs": [],
      "stateMutability": "nonpayable",
      "type": "function"
    },
    {
      "inputs": [
        {
          "internalType": "address",
          "name": "_publicAddress",
          "type": "address"
        },
        {
          "internalType": "string[]",
          "name": "_disease",
          "type": "string[]"
        },
        {
          "internalType": "string[]",
          "name": "_treatment",
          "type": "string[]"
        },
        {
          "internalType": "string[]",
          "name": "_treatmentYear",
          "type": "string[]"
        }
      ],
      "name": "updateRecord",
      "outputs": [],
      "stateMutability": "nonpayable",
      "type": "function"
    },
    {
      "inputs": [
        {
          "internalType": "address",
          "name": "_publicAddress",
          "type": "address"
        },
        {
          "internalType": "string",
          "name": "_name",
          "type": "string"
        },
        {
          "internalType": "uint64",
          "name": "_phone",
          "type": "uint64"
        },
        {
          "internalType": "string",
          "name": "_mail",
          "type": "string"
        },
        {
          "internalType": "string",
          "name": "_hospitalAddress",
          "type": "string"
        }
      ],
      "name": "updatehospital",
      "outputs": [],
      "stateMutability": "nonpayable",
      "type": "function"
    },
    {
      "inputs": [
        {
          "internalType": "address",
          "name": "_publicAddress",
          "type": "address"
        }
      ],
      "name": "check",
      "outputs": [
        {
          "internalType": "string",
          "name": "",
          "type": "string"
        }
      ],
      "stateMutability": "view",
      "type": "function",
      "constant": true
    },
    {
      "inputs": [],
      "name": "getAllHospital",
      "outputs": [
        {
          "components": [
            {
              "internalType": "address",
              "name": "publicAddress",
              "type": "address"
            },
            {
              "internalType": "string",
              "name": "name",
              "type": "string"
            },
            {
              "internalType": "uint64",
              "name": "phone",
              "type": "uint64"
            },
            {
              "internalType": "string",
              "name": "mail",
              "type": "string"
            },
            {
              "internalType": "string",
              "name": "hospitalAddress",
              "type": "string"
            }
          ],
          "internalType": "struct ehr.hospitalDetails2[]",
          "name": "",
          "type": "tuple[]"
        }
      ],
      "stateMutability": "view",
      "type": "function",
      "constant": true
    },
    {
      "inputs": [
        {
          "internalType": "address",
          "name": "_publicAddress",
          "type": "address"
        }
      ],
      "name": "getPatientDetail",
      "outputs": [
        {
          "components": [
            {
              "internalType": "address",
              "name": "publicAddress",
              "type": "address"
            },
            {
              "internalType": "string",
              "name": "name",
              "type": "string"
            },
            {
              "internalType": "uint64",
              "name": "phone",
              "type": "uint64"
            },
            {
              "internalType": "string",
              "name": "mail",
              "type": "string"
            },
            {
              "internalType": "string",
              "name": "residentAddress",
              "type": "string"
            },
            {
              "internalType": "address[]",
              "name": "readAccess",
              "type": "address[]"
            },
            {
              "internalType": "address[]",
              "name": "writeAccess",
              "type": "address[]"
            },
            {
              "internalType": "string[]",
              "name": "Disease",
              "type": "string[]"
            },
            {
              "internalType": "string[]",
              "name": "Treatment",
              "type": "string[]"
            },
            {
              "internalType": "string[]",
              "name": "TreatmentYear",
              "type": "string[]"
            }
          ],
          "internalType": "struct ehr.patientDetails",
          "name": "",
          "type": "tuple"
        }
      ],
      "stateMutability": "view",
      "type": "function",
      "constant": true
    },
    {
      "inputs": [
        {
          "internalType": "address",
          "name": "_publicAddress",
          "type": "address"
        }
      ],
      "name": "getHospitalDetail",
      "outputs": [
        {
          "components": [
            {
              "internalType": "address",
              "name": "publicAddress",
              "type": "address"
            },
            {
              "internalType": "string",
              "name": "name",
              "type": "string"
            },
            {
              "internalType": "uint64",
              "name": "phone",
              "type": "uint64"
            },
            {
              "internalType": "string",
              "name": "mail",
              "type": "string"
            },
            {
              "internalType": "string",
              "name": "hospitalAddress",
              "type": "string"
            },
            {
              "internalType": "address[]",
              "name": "readAccess",
              "type": "address[]"
            },
            {
              "internalType": "address[]",
              "name": "writeAccess",
              "type": "address[]"
            }
          ],
          "internalType": "struct ehr.hospitalDetails",
          "name": "",
          "type": "tuple"
        }
      ],
      "stateMutability": "view",
      "type": "function",
      "constant": true
    },
    {
      "inputs": [
        {
          "internalType": "address",
          "name": "_patientAddress",
          "type": "address"
        },
        {
          "internalType": "address",
          "name": "_hospitalAddress",
          "type": "address"
        },
        {
          "internalType": "bool",
          "name": "access",
          "type": "bool"
        }
      ],
      "name": "addAccess",
      "outputs": [],
      "stateMutability": "nonpayable",
      "type": "function"
    },
    {
      "inputs": [
        {
          "internalType": "address",
          "name": "_patientAddress",
          "type": "address"
        },
        {
          "internalType": "address",
          "name": "_hospitalAddress",
          "type": "address"
        },
        {
          "internalType": "bool",
          "name": "access",
          "type": "bool"
        }
      ],
      "name": "revokeAccess",
      "outputs": [],
      "stateMutability": "nonpayable",
      "type": "function"
    }
  ],
  "bytecode": "0x6080604052735395dde0d1e9fe9aa557369bf0df7370e84c12f26000806101000a81548173ffffffffffffffffffffffffffffffffffffffff021916908373ffffffffffffffffffffffffffffffffffffffff16021790555034801561006457600080fd5b506131e6806100746000396000f3fe608060405234801561001057600080fd5b50600436106100b45760003560e01c8063924727dc11610071578063924727dc1461017757806394016d3d146101a7578063c23697a8146101c3578063e319f51d146101f3578063e36f4d651461020f578063f0d2637b1461022b576100b4565b80630bdb8f8a146100b957806314d63cb0146100d55780632bc8504a146100f157806343269f23146101215780635f5954a01461013d578063759a91b81461015b575b600080fd5b6100d360048036038101906100ce91906122e3565b610247565b005b6100ef60048036038101906100ea9190612562565b61050f565b005b61010b6004803603810190610106919061261d565b6105a4565b6040516101189190612977565b60405180910390f35b61013b600480360381019061013691906122e3565b610be3565b005b61014561109b565b6040516101529190612adf565b60405180910390f35b61017560048036038101906101709190612562565b611338565b005b610191600480360381019061018c919061261d565b6113cd565b60405161019e9190612bb9565b60405180910390f35b6101c160048036038101906101bc9190612c07565b611780565b005b6101dd60048036038101906101d8919061261d565b611987565b6040516101ea9190612d20565b60405180910390f35b61020d60048036038101906102089190612c07565b611bee565b005b61022960048036038101906102249190612c07565b611c9a565b005b61024560048036038101906102409190612c07565b611d46565b005b60011515811515036103aa576000600160008573ffffffffffffffffffffffffffffffffffffffff1673ffffffffffffffffffffffffffffffffffffffff168152602001908152602001600020905080600601839080600181540180825580915050600190039060005260206000200160009091909190916101000a81548173ffffffffffffffffffffffffffffffffffffffff021916908373ffffffffffffffffffffffffffffffffffffffff1602179055506000600260008573ffffffffffffffffffffffffffffffffffffffff1673ffffffffffffffffffffffffffffffffffffffff168152602001908152602001600020905080600601859080600181540180825580915050600190039060005260206000200160009091909190916101000a81548173ffffffffffffffffffffffffffffffffffffffff021916908373ffffffffffffffffffffffffffffffffffffffff160217905550505061050a565b6000151581151503610509576000600160008573ffffffffffffffffffffffffffffffffffffffff1673ffffffffffffffffffffffffffffffffffffffff168152602001908152602001600020905080600501839080600181540180825580915050600190039060005260206000200160009091909190916101000a81548173ffffffffffffffffffffffffffffffffffffffff021916908373ffffffffffffffffffffffffffffffffffffffff1602179055506000600260008573ffffffffffffffffffffffffffffffffffffffff1673ffffffffffffffffffffffffffffffffffffffff168152602001908152602001600020905080600501859080600181540180825580915050600190039060005260206000200160009091909190916101000a81548173ffffffffffffffffffffffffffffffffffffffff021916908373ffffffffffffffffffffffffffffffffffffffff16021790555050505b5b505050565b6000600160008673ffffffffffffffffffffffffffffffffffffffff1673ffffffffffffffffffffffffffffffffffffffff16815260200190815260200160002090508381600701908051906020019061056a929190612005565b5082816008019080519060200190610583929190612005565b508181600901908051906020019061059c929190612005565b505050505050565b6105ac61205e565b600160008373ffffffffffffffffffffffffffffffffffffffff1673ffffffffffffffffffffffffffffffffffffffff168152602001908152602001600020604051806101400160405290816000820160009054906101000a900473ffffffffffffffffffffffffffffffffffffffff1673ffffffffffffffffffffffffffffffffffffffff1673ffffffffffffffffffffffffffffffffffffffff16815260200160018201805461065d90612d71565b80601f016020809104026020016040519081016040528092919081815260200182805461068990612d71565b80156106d65780601f106106ab576101008083540402835291602001916106d6565b820191906000526020600020905b8154815290600101906020018083116106b957829003601f168201915b505050505081526020016002820160009054906101000a900467ffffffffffffffff1667ffffffffffffffff1667ffffffffffffffff16815260200160038201805461072190612d71565b80601f016020809104026020016040519081016040528092919081815260200182805461074d90612d71565b801561079a5780601f1061076f5761010080835404028352916020019161079a565b820191906000526020600020905b81548152906001019060200180831161077d57829003601f168201915b505050505081526020016004820180546107b390612d71565b80601f01602080910402602001604051908101604052809291908181526020018280546107df90612d71565b801561082c5780601f106108015761010080835404028352916020019161082c565b820191906000526020600020905b81548152906001019060200180831161080f57829003601f168201915b50505050508152602001600582018054806020026020016040519081016040528092919081815260200182805480156108ba57602002820191906000526020600020905b8160009054906101000a900473ffffffffffffffffffffffffffffffffffffffff1673ffffffffffffffffffffffffffffffffffffffff1681526020019060010190808311610870575b505050505081526020016006820180548060200260200160405190810160405280929190818152602001828054801561094857602002820191906000526020600020905b8160009054906101000a900473ffffffffffffffffffffffffffffffffffffffff1673ffffffffffffffffffffffffffffffffffffffff16815260200190600101908083116108fe575b5050505050815260200160078201805480602002602001604051908101604052809291908181526020016000905b82821015610a2257838290600052602060002001805461099590612d71565b80601f01602080910402602001604051908101604052809291908181526020018280546109c190612d71565b8015610a0e5780601f106109e357610100808354040283529160200191610a0e565b820191906000526020600020905b8154815290600101906020018083116109f157829003601f168201915b505050505081526020019060010190610976565b50505050815260200160088201805480602002602001604051908101604052809291908181526020016000905b82821015610afb578382906000526020600020018054610a6e90612d71565b80601f0160208091040260200160405190810160405280929190818152602001828054610a9a90612d71565b8015610ae75780601f10610abc57610100808354040283529160200191610ae7565b820191906000526020600020905b815481529060010190602001808311610aca57829003601f168201915b505050505081526020019060010190610a4f565b50505050815260200160098201805480602002602001604051908101604052809291908181526020016000905b82821015610bd4578382906000526020600020018054610b4790612d71565b80601f0160208091040260200160405190810160405280929190818152602001828054610b7390612d71565b8015610bc05780601f10610b9557610100808354040283529160200191610bc0565b820191906000526020600020905b815481529060010190602001808311610ba357829003601f168201915b505050505081526020019060010190610b28565b50505050815250509050919050565b6001151581151503610e3e576000600160008573ffffffffffffffffffffffffffffffffffffffff1673ffffffffffffffffffffffffffffffffffffffff1681526020019081526020016000206006019050600080600090505b8280549050811015610cd4578473ffffffffffffffffffffffffffffffffffffffff16838281548110610c7357610c72612da2565b5b9060005260206000200160009054906101000a900473ffffffffffffffffffffffffffffffffffffffff1673ffffffffffffffffffffffffffffffffffffffff1603610cc157809150610cd4565b8080610ccc90612e0a565b915050610c3d565b50818181548110610ce857610ce7612da2565b5b9060005260206000200160006101000a81549073ffffffffffffffffffffffffffffffffffffffff02191690556000600260008673ffffffffffffffffffffffffffffffffffffffff1673ffffffffffffffffffffffffffffffffffffffff168152602001908152602001600020600601905060005b8180549050811015610df5578673ffffffffffffffffffffffffffffffffffffffff16828281548110610d9457610d93612da2565b5b9060005260206000200160009054906101000a900473ffffffffffffffffffffffffffffffffffffffff1673ffffffffffffffffffffffffffffffffffffffff1603610de257809250610df5565b8080610ded90612e0a565b915050610d5e565b50808281548110610e0957610e08612da2565b5b9060005260206000200160006101000a81549073ffffffffffffffffffffffffffffffffffffffff0219169055505050611096565b6000151581151503611095576000600160008573ffffffffffffffffffffffffffffffffffffffff1673ffffffffffffffffffffffffffffffffffffffff1681526020019081526020016000206005019050600080600090505b8280549050811015610f2f578473ffffffffffffffffffffffffffffffffffffffff16838281548110610ece57610ecd612da2565b5b9060005260206000200160009054906101000a900473ffffffffffffffffffffffffffffffffffffffff1673ffffffffffffffffffffffffffffffffffffffff1603610f1c57809150610f2f565b8080610f2790612e0a565b915050610e98565b50818181548110610f4357610f42612da2565b5b9060005260206000200160006101000a81549073ffffffffffffffffffffffffffffffffffffffff02191690556000600260008673ffffffffffffffffffffffffffffffffffffffff1673ffffffffffffffffffffffffffffffffffffffff168152602001908152602001600020600501905060005b8180549050811015611050578673ffffffffffffffffffffffffffffffffffffffff16828281548110610fef57610fee612da2565b5b9060005260206000200160009054906101000a900473ffffffffffffffffffffffffffffffffffffffff1673ffffffffffffffffffffffffffffffffffffffff160361103d57809250611050565b808061104890612e0a565b915050610fb9565b5080828154811061106457611063612da2565b5b9060005260206000200160006101000a81549073ffffffffffffffffffffffffffffffffffffffff02191690555050505b5b505050565b60606003805480602002602001604051908101604052809291908181526020016000905b8282101561132f57838290600052602060002090600502016040518060a00160405290816000820160009054906101000a900473ffffffffffffffffffffffffffffffffffffffff1673ffffffffffffffffffffffffffffffffffffffff1673ffffffffffffffffffffffffffffffffffffffff16815260200160018201805461114890612d71565b80601f016020809104026020016040519081016040528092919081815260200182805461117490612d71565b80156111c15780601f10611196576101008083540402835291602001916111c1565b820191906000526020600020905b8154815290600101906020018083116111a457829003601f168201915b505050505081526020016002820160009054906101000a900467ffffffffffffffff1667ffffffffffffffff1667ffffffffffffffff16815260200160038201805461120c90612d71565b80601f016020809104026020016040519081016040528092919081815260200182805461123890612d71565b80156112855780601f1061125a57610100808354040283529160200191611285565b820191906000526020600020905b81548152906001019060200180831161126857829003601f168201915b5050505050815260200160048201805461129e90612d71565b80601f01602080910402602001604051908101604052809291908181526020018280546112ca90612d71565b80156113175780601f106112ec57610100808354040283529160200191611317565b820191906000526020600020905b8154815290600101906020018083116112fa57829003601f168201915b505050505081525050815260200190600101906110bf565b50505050905090565b6000600160008673ffffffffffffffffffffffffffffffffffffffff1673ffffffffffffffffffffffffffffffffffffffff168152602001908152602001600020905083816007019080519060200190611393929190612005565b50828160080190805190602001906113ac929190612005565b50818160090190805190602001906113c5929190612005565b505050505050565b6113d56120d1565b600260008373ffffffffffffffffffffffffffffffffffffffff1673ffffffffffffffffffffffffffffffffffffffff1681526020019081526020016000206040518060e00160405290816000820160009054906101000a900473ffffffffffffffffffffffffffffffffffffffff1673ffffffffffffffffffffffffffffffffffffffff1673ffffffffffffffffffffffffffffffffffffffff16815260200160018201805461148590612d71565b80601f01602080910402602001604051908101604052809291908181526020018280546114b190612d71565b80156114fe5780601f106114d3576101008083540402835291602001916114fe565b820191906000526020600020905b8154815290600101906020018083116114e157829003601f168201915b505050505081526020016002820160009054906101000a900467ffffffffffffffff1667ffffffffffffffff1667ffffffffffffffff16815260200160038201805461154990612d71565b80601f016020809104026020016040519081016040528092919081815260200182805461157590612d71565b80156115c25780601f10611597576101008083540402835291602001916115c2565b820191906000526020600020905b8154815290600101906020018083116115a557829003601f168201915b505050505081526020016004820180546115db90612d71565b80601f016020809104026020016040519081016040528092919081815260200182805461160790612d71565b80156116545780601f1061162957610100808354040283529160200191611654565b820191906000526020600020905b81548152906001019060200180831161163757829003601f168201915b50505050508152602001600582018054806020026020016040519081016040528092919081815260200182805480156116e257602002820191906000526020600020905b8160009054906101000a900473ffffffffffffffffffffffffffffffffffffffff1673ffffffffffffffffffffffffffffffffffffffff1681526020019060010190808311611698575b505050505081526020016006820180548060200260200160405190810160405280929190818152602001828054801561177057602002820191906000526020600020905b8160009054906101000a900473ffffffffffffffffffffffffffffffffffffffff1673ffffffffffffffffffffffffffffffffffffffff1681526020019060010190808311611726575b5050505050815250509050919050565b60608060608060606040518061014001604052808b73ffffffffffffffffffffffffffffffffffffffff1681526020018a81526020018967ffffffffffffffff16815260200188815260200187815260200186815260200185815260200184815260200183815260200182815250600160008c73ffffffffffffffffffffffffffffffffffffffff1673ffffffffffffffffffffffffffffffffffffffff16815260200190815260200160002060008201518160000160006101000a81548173ffffffffffffffffffffffffffffffffffffffff021916908373ffffffffffffffffffffffffffffffffffffffff16021790555060208201518160010190816118899190612ffe565b5060408201518160020160006101000a81548167ffffffffffffffff021916908367ffffffffffffffff16021790555060608201518160030190816118ce9190612ffe565b5060808201518160040190816118e49190612ffe565b5060a082015181600501908051906020019061190192919061212e565b5060c082015181600601908051906020019061191e92919061212e565b5060e082015181600701908051906020019061193b929190612005565b50610100820151816008019080519060200190611959929190612005565b50610120820151816009019080519060200190611977929190612005565b5090505050505050505050505050565b606060006040518060400160405280600481526020017f6e6f6e6500000000000000000000000000000000000000000000000000000000815250905060008054906101000a900473ffffffffffffffffffffffffffffffffffffffff1673ffffffffffffffffffffffffffffffffffffffff168373ffffffffffffffffffffffffffffffffffffffff1603611a4f576040518060400160405280600581526020017f61646d696e00000000000000000000000000000000000000000000000000000081525090505b604051602001611a5e90613101565b60405160208183030381529060405280519060200120600160008573ffffffffffffffffffffffffffffffffffffffff1673ffffffffffffffffffffffffffffffffffffffff168152602001908152602001600020600101604051602001611ac69190613199565b6040516020818303038152906040528051906020012014611b1a576040518060400160405280600781526020017f70617469656e740000000000000000000000000000000000000000000000000081525090505b604051602001611b2990613101565b60405160208183030381529060405280519060200120600260008573ffffffffffffffffffffffffffffffffffffffff1673ffffffffffffffffffffffffffffffffffffffff168152602001908152602001600020600101604051602001611b919190613199565b6040516020818303038152906040528051906020012014611be5576040518060400160405280600881526020017f686f73706974616c00000000000000000000000000000000000000000000000081525090505b80915050919050565b6000600160008773ffffffffffffffffffffffffffffffffffffffff1673ffffffffffffffffffffffffffffffffffffffff168152602001908152602001600020905084816001019081611c429190612ffe565b50838160020160006101000a81548167ffffffffffffffff021916908367ffffffffffffffff16021790555082816003019081611c7f9190612ffe565b5081816004019081611c919190612ffe565b50505050505050565b6000600260008773ffffffffffffffffffffffffffffffffffffffff1673ffffffffffffffffffffffffffffffffffffffff168152602001908152602001600020905084816001019081611cee9190612ffe565b50838160020160006101000a81548167ffffffffffffffff021916908367ffffffffffffffff16021790555082816003019081611d2b9190612ffe565b5081816004019081611d3d9190612ffe565b50505050505050565b6060806040518060e001604052808873ffffffffffffffffffffffffffffffffffffffff1681526020018781526020018667ffffffffffffffff16815260200185815260200184815260200183815260200182815250600260008973ffffffffffffffffffffffffffffffffffffffff1673ffffffffffffffffffffffffffffffffffffffff16815260200190815260200160002060008201518160000160006101000a81548173ffffffffffffffffffffffffffffffffffffffff021916908373ffffffffffffffffffffffffffffffffffffffff1602179055506020820151816001019081611e379190612ffe565b5060408201518160020160006101000a81548167ffffffffffffffff021916908367ffffffffffffffff1602179055506060820151816003019081611e7c9190612ffe565b506080820151816004019081611e929190612ffe565b5060a0820151816005019080519060200190611eaf92919061212e565b5060c0820151816006019080519060200190611ecc92919061212e565b5090505060036040518060a001604052808973ffffffffffffffffffffffffffffffffffffffff1681526020018881526020018767ffffffffffffffff16815260200186815260200185815250908060018154018082558091505060019003906000526020600020906005020160009091909190915060008201518160000160006101000a81548173ffffffffffffffffffffffffffffffffffffffff021916908373ffffffffffffffffffffffffffffffffffffffff1602179055506020820151816001019081611f9e9190612ffe565b5060408201518160020160006101000a81548167ffffffffffffffff021916908367ffffffffffffffff1602179055506060820151816003019081611fe39190612ffe565b506080820151816004019081611ff99190612ffe565b50505050505050505050565b82805482825590600052602060002090810192821561204d579160200282015b8281111561204c57825182908161203c9190612ffe565b5091602001919060010190612025565b5b50905061205a91906121b8565b5090565b604051806101400160405280600073ffffffffffffffffffffffffffffffffffffffff16815260200160608152602001600067ffffffffffffffff168152602001606081526020016060815260200160608152602001606081526020016060815260200160608152602001606081525090565b6040518060e00160405280600073ffffffffffffffffffffffffffffffffffffffff16815260200160608152602001600067ffffffffffffffff168152602001606081526020016060815260200160608152602001606081525090565b8280548282559060005260206000209081019282156121a7579160200282015b828111156121a65782518260006101000a81548173ffffffffffffffffffffffffffffffffffffffff021916908373ffffffffffffffffffffffffffffffffffffffff1602179055509160200191906001019061214e565b5b5090506121b491906121dc565b5090565b5b808211156121d857600081816121cf91906121f9565b506001016121b9565b5090565b5b808211156121f55760008160009055506001016121dd565b5090565b50805461220590612d71565b6000825580601f106122175750612236565b601f01602090049060005260206000209081019061223591906121dc565b5b50565b6000604051905090565b600080fd5b600080fd5b600073ffffffffffffffffffffffffffffffffffffffff82169050919050565b60006122788261224d565b9050919050565b6122888161226d565b811461229357600080fd5b50565b6000813590506122a58161227f565b92915050565b60008115159050919050565b6122c0816122ab565b81146122cb57600080fd5b50565b6000813590506122dd816122b7565b92915050565b6000806000606084860312156122fc576122fb612243565b5b600061230a86828701612296565b935050602061231b86828701612296565b925050604061232c868287016122ce565b9150509250925092565b600080fd5b6000601f19601f8301169050919050565b7f4e487b7100000000000000000000000000000000000000000000000000000000600052604160045260246000fd5b6123848261233b565b810181811067ffffffffffffffff821117156123a3576123a261234c565b5b80604052505050565b60006123b6612239565b90506123c2828261237b565b919050565b600067ffffffffffffffff8211156123e2576123e161234c565b5b602082029050602081019050919050565b600080fd5b600080fd5b600067ffffffffffffffff8211156124185761241761234c565b5b6124218261233b565b9050602081019050919050565b82818337600083830152505050565b600061245061244b846123fd565b6123ac565b90508281526020810184848401111561246c5761246b6123f8565b5b61247784828561242e565b509392505050565b600082601f83011261249457612493612336565b5b81356124a484826020860161243d565b91505092915050565b60006124c06124bb846123c7565b6123ac565b905080838252602082019050602084028301858111156124e3576124e26123f3565b5b835b8181101561252a57803567ffffffffffffffff81111561250857612507612336565b5b808601612515898261247f565b855260208501945050506020810190506124e5565b5050509392505050565b600082601f83011261254957612548612336565b5b81356125598482602086016124ad565b91505092915050565b6000806000806080858703121561257c5761257b612243565b5b600061258a87828801612296565b945050602085013567ffffffffffffffff8111156125ab576125aa612248565b5b6125b787828801612534565b935050604085013567ffffffffffffffff8111156125d8576125d7612248565b5b6125e487828801612534565b925050606085013567ffffffffffffffff81111561260557612604612248565b5b61261187828801612534565b91505092959194509250565b60006020828403121561263357612632612243565b5b600061264184828501612296565b91505092915050565b6126538161226d565b82525050565b600081519050919050565b600082825260208201905092915050565b60005b83811015612693578082015181840152602081019050612678565b60008484015250505050565b60006126aa82612659565b6126b48185612664565b93506126c4818560208601612675565b6126cd8161233b565b840191505092915050565b600067ffffffffffffffff82169050919050565b6126f5816126d8565b82525050565b600081519050919050565b600082825260208201905092915050565b6000819050602082019050919050565b6000612733838361264a565b60208301905092915050565b6000602082019050919050565b6000612757826126fb565b6127618185612706565b935061276c83612717565b8060005b8381101561279d5781516127848882612727565b975061278f8361273f565b925050600181019050612770565b5085935050505092915050565b600081519050919050565b600082825260208201905092915050565b6000819050602082019050919050565b60006127e2838361269f565b905092915050565b6000602082019050919050565b6000612802826127aa565b61280c81856127b5565b93508360208202850161281e856127c6565b8060005b8581101561285a578484038952815161283b85826127d6565b9450612846836127ea565b925060208a01995050600181019050612822565b50829750879550505050505092915050565b600061014083016000830151612885600086018261264a565b506020830151848203602086015261289d828261269f565b91505060408301516128b260408601826126ec565b50606083015184820360608601526128ca828261269f565b915050608083015184820360808601526128e4828261269f565b91505060a083015184820360a08601526128fe828261274c565b91505060c083015184820360c0860152612918828261274c565b91505060e083015184820360e086015261293282826127f7565b91505061010083015184820361010086015261294e82826127f7565b91505061012083015184820361012086015261296a82826127f7565b9150508091505092915050565b60006020820190508181036000830152612991818461286c565b905092915050565b600081519050919050565b600082825260208201905092915050565b6000819050602082019050919050565b600060a0830160008301516129dd600086018261264a565b50602083015184820360208601526129f5828261269f565b9150506040830151612a0a60408601826126ec565b5060608301518482036060860152612a22828261269f565b91505060808301518482036080860152612a3c828261269f565b9150508091505092915050565b6000612a5583836129c5565b905092915050565b6000602082019050919050565b6000612a7582612999565b612a7f81856129a4565b935083602082028501612a91856129b5565b8060005b85811015612acd5784840389528151612aae8582612a49565b9450612ab983612a5d565b925060208a01995050600181019050612a95565b50829750879550505050505092915050565b60006020820190508181036000830152612af98184612a6a565b905092915050565b600060e083016000830151612b19600086018261264a565b5060208301518482036020860152612b31828261269f565b9150506040830151612b4660408601826126ec565b5060608301518482036060860152612b5e828261269f565b91505060808301518482036080860152612b78828261269f565b91505060a083015184820360a0860152612b92828261274c565b91505060c083015184820360c0860152612bac828261274c565b9150508091505092915050565b60006020820190508181036000830152612bd38184612b01565b905092915050565b612be4816126d8565b8114612bef57600080fd5b50565b600081359050612c0181612bdb565b92915050565b600080600080600060a08688031215612c2357612c22612243565b5b6000612c3188828901612296565b955050602086013567ffffffffffffffff811115612c5257612c51612248565b5b612c5e8882890161247f565b9450506040612c6f88828901612bf2565b935050606086013567ffffffffffffffff811115612c9057612c8f612248565b5b612c9c8882890161247f565b925050608086013567ffffffffffffffff811115612cbd57612cbc612248565b5b612cc98882890161247f565b9150509295509295909350565b600082825260208201905092915050565b6000612cf282612659565b612cfc8185612cd6565b9350612d0c818560208601612675565b612d158161233b565b840191505092915050565b60006020820190508181036000830152612d3a8184612ce7565b905092915050565b7f4e487b7100000000000000000000000000000000000000000000000000000000600052602260045260246000fd5b60006002820490506001821680612d8957607f821691505b602082108103612d9c57612d9b612d42565b5b50919050565b7f4e487b7100000000000000000000000000000000000000000000000000000000600052603260045260246000fd5b7f4e487b7100000000000000000000000000000000000000000000000000000000600052601160045260246000fd5b6000819050919050565b6000612e1582612e00565b91507fffffffffffffffffffffffffffffffffffffffffffffffffffffffffffffffff8203612e4757612e46612dd1565b5b600182019050919050565b60008190508160005260206000209050919050565b60006020601f8301049050919050565b600082821b905092915050565b600060088302612eb47fffffffffffffffffffffffffffffffffffffffffffffffffffffffffffffffff82612e77565b612ebe8683612e77565b95508019841693508086168417925050509392505050565b6000819050919050565b6000612efb612ef6612ef184612e00565b612ed6565b612e00565b9050919050565b6000819050919050565b612f1583612ee0565b612f29612f2182612f02565b848454612e84565b825550505050565b600090565b612f3e612f31565b612f49818484612f0c565b505050565b5b81811015612f6d57612f62600082612f36565b600181019050612f4f565b5050565b601f821115612fb257612f8381612e52565b612f8c84612e67565b81016020851015612f9b578190505b612faf612fa785612e67565b830182612f4e565b50505b505050565b600082821c905092915050565b6000612fd560001984600802612fb7565b1980831691505092915050565b6000612fee8383612fc4565b9150826002028217905092915050565b61300782612659565b67ffffffffffffffff8111156130205761301f61234c565b5b61302a8254612d71565b613035828285612f71565b600060209050601f8311600181146130685760008415613056578287015190505b6130608582612fe2565b8655506130c8565b601f19841661307686612e52565b60005b8281101561309e57848901518255600182019150602085019450602081019050613079565b868310156130bb57848901516130b7601f891682612fc4565b8355505b6001600288020188555050505b505050505050565b600081905092915050565b50565b60006130eb6000836130d0565b91506130f6826130db565b600082019050919050565b600061310c826130de565b9150819050919050565b6000815461312381612d71565b61312d81866130d0565b94506001821660008114613148576001811461315d57613190565b60ff1983168652811515820286019350613190565b61316685612e52565b60005b8381101561318857815481890152600182019150602081019050613169565b838801955050505b50505092915050565b60006131a58284613116565b91508190509291505056fea264697066735822122032bacc05ed55ccb846aa80c2a438a5f48dc5382fb73a5648899b264a4781f11664736f6c63430008110033",
  "immutableReferences": {},
  "source": "// SPDX-License-Identifier: GPL-3.0\npragma solidity >=0.8.0 <=0.9.0;\n\ncontract ehr{\n\n\n    struct patientDetails{\n        address publicAddress;\n        string name;\n        uint64 phone;\n        string mail;\n        string residentAddress;\n        address[] readAccess;\n        address[] writeAccess;\n        string[] Disease;\n        string[] Treatment;\n        string[] TreatmentYear;\n    }\n\n    struct hospitalDetails{\n        address publicAddress;\n        string name;\n        uint64 phone;\n        string mail;\n        string hospitalAddress;\n        address[] readAccess;\n        address[] writeAccess;\n    }\n\n    struct hospitalDetails2{\n        address publicAddress;\n        string name;\n        uint64 phone;\n        string mail;\n        string hospitalAddress;\n    }\n\n    address admin = 0x5395ddE0d1E9FE9aa557369bF0DF7370e84c12F2;\n    mapping (address => patientDetails) patient;\n    mapping (address => hospitalDetails) hospital;\n    hospitalDetails2[] hospitals;\n\n    function registerPatient(address _publicAddress, string memory _name, uint64 _phone, string memory _mail, string memory _residentAddress) public{\n        address[] memory _readAccess;\n        address[] memory _writeAccess;\n        string[] memory _Diesease;\n        string[] memory _Treatment;\n        string[] memory _TreatmentYear;\n        patient[_publicAddress] = patientDetails(_publicAddress,_name, _phone, _mail, _residentAddress, _readAccess, _writeAccess, _Diesease, _Treatment, _TreatmentYear);\n    }\n\n    function registerhospital(address _publicAddress,  string memory _name, uint64 _phone, string memory _mail, string memory _hospitalAddress) public{\n        address[] memory _readAccess;\n        address[] memory _writeAccess;\n        hospital[_publicAddress] = hospitalDetails(_publicAddress, _name, _phone, _mail, _hospitalAddress, _readAccess, _writeAccess);\n        hospitals.push(hospitalDetails2(_publicAddress, _name, _phone, _mail, _hospitalAddress));\n    }\n\n    function updatePatient(address _publicAddress, string memory _name, uint64 _phone, string memory _mail, string memory _residentAddress) public {\n        patientDetails storage pd = patient[_publicAddress];\n        pd.name = _name;\n        pd.phone = _phone;\n        pd.mail = _mail;\n        pd.residentAddress = _residentAddress;\n    }\n\n    function addRecord(address _publicAddress, string[] memory _disease, string[] memory _treatment, string[] memory _treatmentYear) public {\n            patientDetails storage pd = patient[_publicAddress];\n            pd.Disease = _disease;\n            pd.Treatment = _treatment;\n            pd.TreatmentYear = _treatmentYear;\n        }\n\n    function updateRecord(address _publicAddress, string[] memory _disease, string[] memory _treatment, string[] memory _treatmentYear) public {\n            patientDetails storage pd = patient[_publicAddress];\n            pd.Disease = _disease;\n            pd.Treatment = _treatment;\n            pd.TreatmentYear = _treatmentYear;\n        }\n\n     function updatehospital(address _publicAddress,  string memory _name, uint64 _phone, string memory _mail, string memory _hospitalAddress) public{\n        hospitalDetails storage dd = hospital[_publicAddress];\n        dd.name = _name;\n        dd.phone = _phone;\n        dd.mail = _mail;\n        dd.hospitalAddress = _hospitalAddress;\n    }\n\n    function check(address _publicAddress) public view returns(string memory)\n    {\n        string memory user = \"none\";\n        if(_publicAddress == admin)\n        {\n            user = \"admin\";\n        }\n        if(!(keccak256(abi.encodePacked((patient[_publicAddress].name))) == keccak256(abi.encodePacked((\"\")))))\n        {\n            user = \"patient\";\n        }\n        if(!(keccak256(abi.encodePacked((hospital[_publicAddress].name))) == keccak256(abi.encodePacked((\"\")))))\n        {\n            user = \"hospital\";\n        }\n        return user;\n    }\n\n    function getAllHospital() public view returns(hospitalDetails2[] memory)\n    {\n        return hospitals;\n    }\n\n    function getPatientDetail(address _publicAddress) public view returns(patientDetails memory)\n    {\n        return patient[_publicAddress];\n    }\n\n     function getHospitalDetail(address _publicAddress) public view returns(hospitalDetails memory)\n    {\n        return hospital[_publicAddress];\n    }\n\n    function addAccess(address _patientAddress, address _hospitalAddress, bool access) public {\n            if(access == true)\n            {\n                patientDetails storage pd_temp = patient[_patientAddress];\n                pd_temp.writeAccess.push(_hospitalAddress);\n                hospitalDetails storage pd_temp2 = hospital[_hospitalAddress];\n                pd_temp2.writeAccess.push(_patientAddress);\n            }\n            else if(access == false)\n            {\n                patientDetails storage pd_temp = patient[_patientAddress];\n                pd_temp.readAccess.push(_hospitalAddress);\n                hospitalDetails storage pd_temp2 = hospital[_hospitalAddress];\n                pd_temp2.readAccess.push(_patientAddress);\n            }\n    }\n    \n        function revokeAccess(address _patientAddress, address _hospitalAddress, bool access) public{\n            if(access == true)\n            {\n                address[] storage pd_temp5 = patient[_patientAddress].writeAccess;\n                uint index;\n                for(uint i=0; i<pd_temp5.length; i++)\n                {\n                    if(pd_temp5[i] == _hospitalAddress)\n                    {\n                        index = i;\n                        break;\n                    }\n                }\n                delete pd_temp5[index];\n\n                address[] storage pd_temp6 = hospital[_hospitalAddress].writeAccess;\n                for(uint i=0; i<pd_temp6.length; i++)\n                {\n                    if(pd_temp6[i] == _patientAddress)\n                    {\n                        index = i;\n                        break;\n                    }\n                }\n                delete pd_temp6[index];\n            }\n            else if(access == false)\n            {\n                address[] storage pd_temp5 = patient[_patientAddress].readAccess;\n                uint index;\n                for(uint i=0; i<pd_temp5.length; i++)\n                {\n                    if(pd_temp5[i] == _hospitalAddress)\n                    {\n                        index = i;\n                        break;\n                    }\n                }\n                delete pd_temp5[index];\n\n                address[] storage pd_temp6 = hospital[_hospitalAddress].readAccess;\n                for(uint i=0; i<pd_temp6.length; i++)\n                {\n                    if(pd_temp6[i] == _patientAddress)\n                    {\n                        index = i;\n                        break;\n                    }\n                }\n                delete pd_temp6[index];\n            }\n        }\n}",
  "sourcePath": "/Volumes/Work/blockchainTrial/Backend/contracts/ehr.sol",
  "compiler": {
    "name": "solc",
    "version": "0.8.17+commit.8df45f5f.Emscripten.clang"
  },
  "schemaVersion": "3.4.12",
  "updatedAt": "2023-03-25T17:11:54.763Z",
  "networkType": "ethereum",
  "devdoc": {
    "kind": "dev",
    "methods": {},
    "version": 1
  },
  "userdoc": {
    "kind": "user",
    "methods": {},
    "version": 1
  }
}